:020000040800F2
:1000000000400020110D0008750C00087B0C000852
:1000100000000000000000000000000000000000E0
:100020000000000000000000000000009D0F00081C
:100030000000000000000000C110000809110008C5
:10004000610D0008610D0008610D0008610D0008D8
:10005000610D0008610D0008610D0008610D0008C8
:10006000610D0008610D0008610D0008610D0008B8
:10007000610D0008810C0008610D0008610D000889
:10008000610D0008610D0008610D0008610D000898
:10009000610D0008610D0008610D0008610D000888
:1000A000610D0008610D0008610D0008610D000878
:1000B000610D0008610D0008610D0008610D000868
:1000C00010B5064C2378002B07D1054B002B02D02E
:1000D000044800E000BF0123237010BD740000201D
:1000E0000000000014640008044B10B5002B03D07E
:1000F0000349044800E000BF10BDC04600000000F6
:100100007800002014640008002243088B4274D356
:1001100003098B425FD3030A8B4244D3030B8B4208
:1001200028D3030C8B420DD3FF22090212BA030C11
:100130008B4202D31212090265D0030B8B4219D3F2
:1001400000E0090AC30B8B4201D3CB03C01A524112
:10015000830B8B4201D38B03C01A5241430B8B425A
:1001600001D34B03C01A5241030B8B4201D30B0343
:10017000C01A5241C30A8B4201D3CB02C01A52416A
:10018000830A8B4201D38B02C01A5241430A8B422D
:1001900001D34B02C01A5241030A8B4201D30B0216
:1001A000C01A5241CDD2C3098B4201D3CB01C01A30
:1001B000524183098B4201D38B01C01A524143093A
:1001C0008B4201D34B01C01A524103098B4201D328
:1001D0000B01C01A5241C3088B4201D3CB00C01A95
:1001E000524183088B4201D38B00C01A524143080D
:1001F0008B4201D34B00C01A5241411A00D2014632
:10020000524110467047FFE701B5002000F006F8A4
:1002100002BDC0460029F7D076E770477047C04658
:100220000023C25C0133002AFBD1581E7047000036
:1002300003B47146490840004900095E49008E44F4
:1002400003BC704790B599B000AF2C243B1918003F
:1002500034231A00002105F0A2FB1C23FB18180010
:1002600010231A00002105F09AFB3B0018001C2304
:100270001A00002105F093FB21007B1822221A604E
:100280007B180122DA607B1801221A627B18102287
:100290001A617B1800225A627B18180003F0E8FEEE
:1002A000031E01D000F0BAF91C217B1807221A6046
:1002B0007B1803225A607B1800229A607B18002268
:1002C000DA607B180121180004F058FA031E01D0EF
:1002D00000F0A4F93B0022221A603B000022DA6001
:1002E0003B0000221A613B00180003F0C3FD031E0F
:1002F00001D000F093F9C046BD4619B090BD000092
:1003000080B582B000AF3B00180008231A0000211E
:1003100005F045FB0F4B104A1A600E4B180003F016
:10032000C1FA031E01D000F079F93B0000221A60E7
:100330003B0000225A603900064B0022180003F0EF
:1003400071FA031E01D000F069F9C046BD4602B043
:1003500080BDC046900000200074004080B500AF12
:100360001B4B1C4A1A601A4B1B4A5A60184B00223E
:100370009A60174B0122DA60154B00221A61144B68
:1003800000225A61124B00229A61114B0022DA615D
:100390000F4B00221A620E4B180003F0D5FC031E0F
:1003A00001D000F03BF90A4B0021180003F034FCA7
:1003B000031E01D000F032F9054B0021180003F0B4
:1003C00077FC031E01D000F029F9C046BD4680BD70
:1003D000A4000020005400400E09002080B500AFAA
:1003E0001B4B1C4A1A601A4B1B4A5A60184B0022BE
:1003F0009A60174B0122DA60154B00221A61144BE8
:1004000000225A61124B00229A61114B0022DA61DC
:100410000F4B00221A620E4B180003F095FC031ECE
:1004200001D000F0FBF80A4B0021180003F0F4FBA8
:10043000031E01D000F0F2F8054B0021180003F074
:1004400037FC031E01D000F0E9F8C046BD4680BD70
:10045000F8000020005800405D3E302080B500AF1D
:10046000144B154A1A60134B962212025A60114B14
:1004700000229A600F4B0022DA600E4B00221A61B4
:100480000C4B0C225A610B4B00229A61094B002243
:10049000DA61084B00221A62064B00225A62054BB1
:1004A000180004F071FD031E01D000F0B7F8C0463B
:1004B000BD4680BD4C0100200044004090B58BB08B
:1004C00000AF14243B19180014231A00002105F072
:1004D00066FA464B5A69454B802109030A435A6123
:1004E000424B5A6980231B0313403B613B693F4BDE
:1004F0005A693E4B8021C9030A435A613B4B5A69F2
:100500008023DB031340FB60FB68384B5A69374B91
:10051000802189020A435A61344B5A6980239B0225
:100520001340BB60BB68314B5A69304B8021C90214
:100530000A435A612D4B5A698023DB0213407B60CA
:100540007B68882399009023DB050022180003F0C4
:1005500045FB3B19802292011A603B1984229203C9
:100560005A603B1900229A603B19214A1900100079
:1005700003F0BCF921003B19882292001A600C009C
:100580003B1901225A603B1900229A603B19002254
:10059000DA603A199023DB051100180003F0A6F980
:1005A0003B1901221A603B1903225A603B190022B1
:1005B0009A603B190F4A1900100003F097F92100C7
:1005C0007B18802252001A607B1800225A607B1828
:1005D00001229A607A189023DB051100180003F0BD
:1005E00085F9C046BD460BB090BDC0460010024024
:1005F000000800480004004880B582B000AF786071
:100600007B681B68044A934201D105F077F9C04624
:10061000BD4602B080BDC046002C014080B500AF91
:1006200072B6C046FEE7000080B584B000AF7860C7
:1006300002F0BCF80300FB60154B1B68180001F0CA
:10064000DBFE144B1900022000F0CAF89023DB05F2
:1006500001222021180003F0C1FAFA235B001800E0
:1006600001F0A4FE9023DB0500222021180003F0F6
:10067000B5FA074B1B68180001F054FFFA239A00E3
:100680000C23FB181100180001F034FED4E7C0461B
:10069000D40100202C64000880B584B000AF7860DD
:1006A00002F084F80300FB60064B1900002000F004
:1006B00097F8FA235A000C23FB181100180001F0D8
:1006C00019FEF1E75064000880B582B002AF05F072
:1006D00001F9FFF7B7FDFFF7F1FEFFF7BFFEFFF7E8
:1006E0003DFEFFF70DFEFFF779FE214B180000F0ED
:1006F00057F803001A0001235340DBB2002B04D04B
:100700001C4B1900012000F06BF81B4B1900002056
:1007100000F066F8194B1900002000F061F8802302
:100720005A0017491748184B0193012300930023DF
:1007300001F094FC0300012B04D0144B190001209C
:1007400000F04EF812491348134B01930123009314
:100750000023802201F082FC0300012B04D00F4B08
:100760001900012000F03CF801F02AFFFEE7C04626
:100770004C0100207464000894640008AC64000814
:10078000C464000829060008D8010020D8640008C5
:100790000065000899060008D40100200C650008D7
:1007A00080B582B000AF78600B4B7A681A60012088
:1007B00000F0A2FF0200094B1A60084B1B68002BD7
:1007C00005D0054B1B68002B01D00123FFE7180063
:1007D000BD4602B080BDC046DC010020E001002023
:1007E0000EB490B588B002AF0200FB1D1A70334BF7
:1007F0001B68012252421100180001F083F9030026
:10080000012B4CD12E4B64220021180005F0C7F8B3
:100810002C4B64220021180005F0C1F82823FB1896
:100820007B617B697A6A2648642105F053FAFB1DD7
:100830001B78002B07D124490C23FB180822180031
:1008400005F008FA14E0FB1D1B78012B07D11F49A6
:100850000C23FB180822180005F0FCF908E0FB1D2A
:100860001B78022B04D10C23FB18194A03CA03C3BB
:100870000C23F918174A1348114B00930B006421FD
:1008800005F0B4F9144B1C680E4B1800FFF7C8FCB8
:1008900003009AB20B496423200004F0C9FB074B04
:1008A000186800230022002100F042FFC046BD4628
:1008B00006B090BC08BC03B01847C046E001002059
:1008C000E401002048020020286500083065000887
:1008D0003865000840650008DC01002080B582B062
:1008E00000AF124B9A69114B01210A439A610F4BD9
:1008F0009B69012213407B607B680C4BDA690B4BD0
:10090000802149050A43DA61084BDA6980235B05D7
:1009100013403B603B6802235B4200220321180026
:1009200002F05AFFC046BD4602B080BD0010024032
:1009300090B58BB000AF786014243B1918001423D5
:100940001A00002105F02BF87B681B68194A9342B6
:100950002BD1194BDA69184B802189050A43DA61DA
:10096000154BDA6980239B0513403B613B69124BB1
:100970005A69114B802189020A435A610E4B5A6908
:1009800080239B021340FB60FB683B1910221A6016
:100990003B1903225A603B1900229A603A199023AE
:1009A000DB051100180002F0A1FFC046BD460BB0E8
:1009B00090BDC046007400400010024090B58DB05C
:1009C00000AF78601C243B19180014231A00002182
:1009D00004F0E5FF7B681B68394A934233D1394BF9
:1009E0005A69384B8021C9020A435A61354B5A690A
:1009F0008023DB021340BB61BB693B19C02292001C
:100A00001A6021007B1812225A607B1800229A601B
:100A10007B180322DA607B1801221A617B182A4AAC
:100A20001900100002F062FF264BDA69254B802185
:100A300089030A43DA61234BDA6980239B0313405D
:100A40007B617B6937E07B681B68204A934232D127
:100A50001C4B5A691B4B8021C9020A435A61194B2E
:100A60005A698023DB0213403B613B691C217B18E0
:100A7000C022D2011A607B1812225A607B18002211
:100A80009A607B180322DA607B1805221A617B18B2
:100A90000D4A1900100002F029FF0A4BDA69094BD0
:100AA0008021C9030A43DA61064BDA698023DB033C
:100AB0001340FB60FB68C046BD460DB090BDC0460C
:100AC000005400400010024000040048005800405C
:100AD00090B58BB000AF786014243B191800142334
:100AE0001A00002104F05BFF7B681B681C4A9342DC
:100AF00032D11C4BDA691B4B802189020A43DA612F
:100B0000184BDA6980239B0213403B613B69154B0C
:100B10005A69144B802189020A435A61114B5A6960
:100B200080239B021340FB60FB6821007B180C2292
:100B30001A607B1802225A607B1800229A607B1888
:100B40000022DA607B1801221A617A189023DB05F3
:100B50001100180002F0CAFEC046BD460BB090BDA1
:100B60000044004000100240B0B58CB000AF786087
:100B700000237B6200233B62384B9A69374B80210C
:100B800009010A439A61354B9A6980231B0113407E
:100B9000BB60BB680C23FA1810243B191100180025
:100BA00003F058FF3B19DB687B627B6A002B04D1A2
:100BB00003F03AFF0300FB6204E003F035FF03009B
:100BC0005B00FB62FB6A26491800FFF79DFA0300F1
:100BD000013B3B62234B244A1A60224B234ADA60D2
:100BE000204B3A6A5A601F4B00221A611D4B0022AB
:100BF0009A601C4B00229A612B257C19194B180016
:100C000003F062FF030023707B191B78002B1ED1B9
:100C10007C19144B180003F0AFFF030023707B19FD
:100C20001B78002B13D10D2002F0EBFD7B68032B0A
:100C300009D87B68002219000D2002F0CDFD0C4B75
:100C40007A681A6003E02B23FB1801221A702B2309
:100C5000FB181B781800BD460CB0B0BD0010024058
:100C600040420F00AC020020002C0140E7030000CE
:100C70000800002080B500AFFEE780B500AFFEE7BA
:100C800080B500AF034B180003F0C8FFC046BD4657
:100C900080BDC046AC02002080B586B000AF786051
:100CA000144A154BD31A7B617B693B61134B1B685C
:100CB000002B02D1114B124A1A60104B1A687B6844
:100CC000D3183A699A4207D204F034FE03000C228A
:100CD0001A6001235B4209E0084B1B68FB60074B6D
:100CE0001A687B68D218054B1A60FB681800BD466D
:100CF00006B080BD0040002000040000F402002087
:100D0000081D002080B500AFC046BD4680BD000074
:100D10000D488546FFF7F6FF0C480D490D4A0023A4
:100D200002E0D458C4500433C4188C42F9D30A4AA0
:100D30000A4C002301E013600432A242FBD304F00A
:100D4000FFFDFFF7C1FCFEE700400020000000208F
:100D5000740000206066000874000020081D002058
:100D6000FEE7000080B584B000AFF860B9607A603B
:100D7000FB68064A1A60BB68054A1A607B688022D5
:100D80001A60C046BD4604B080BDC046F8020020CF
:100D9000B403002080B584B000AFF860B9607A6019
:100DA000FB68064A1A60BB68054A1A607B688022A5
:100DB00052001A60C046BD4604B080BDB405002094
:100DC0007006002080B582B000AF78607B68083381
:100DD0001A007B685A607B68012252429A607B68E5
:100DE00008331A007B68DA607B6808331A007B6876
:100DF0001A617B6800221A60C046BD4602B080BD01
:100E000080B582B000AF78607B6800221A61C0466E
:100E1000BD4602B080BD80B584B000AF7860396057
:100E20007B685B68FB603B68FA685A60FB689A689D
:100E30003B689A60FB689B683A685A60FB683A684E
:100E40009A603B687A681A617B681B685A1C7B68E9
:100E50001A60C046BD4604B080BD80B584B000AF06
:100E6000786039603B681B68BB60BB68013303D1A5
:100E70007B681B69FB600CE07B680833FB6002E069
:100E8000FB685B68FB60FB685B681B68BA689A423A
:100E9000F6D2FB685A683B685A603B685B683A6800
:100EA0009A603B68FA689A60FB683A685A603B68E7
:100EB0007A681A617B681B685A1C7B681A60C04696
:100EC000BD4604B080BD80B584B000AF78607B685B
:100ED0001B69FB607B685B687A6892689A607B68D4
:100EE0009B687A6852685A60FB685B687A689A42C5
:100EF00003D17B689A68FB685A607B6800221A619C
:100F0000FB681B685A1EFB681A60FB681B681800A8
:100F1000BD4604B080BD000080B584B000AFF8606D
:100F2000B9607A60FB68043BFB60FB688022520476
:100F30001A60FB68043BFB60BA68FB681A60FB68D8
:100F4000043BFB60084AFB681A60FB68143BFB60CB
:100F50007A68FB681A60FB68203BFB60FB6818003E
:100F6000BD4604B080BDC0466D0F000880B582B09C
:100F700000AF00237B60084B1B68013301D072B6C1
:100F8000FEE772B6C0467B68002BFCD0C046C04668
:100F9000BD4602B080BDC0460400002080B500AF51
:100FA000C046BD4680BD00000000000000000000FB
:100FB0000B4A13681868203080F30988022080F3F8
:100FC0001488BFF36F8F3FBCAE4608BC04BC62B64A
:100FD0001847C046C046C046C046C046C046C04688
:100FE000C8160020C046C04680B500AF0E4B1A6838
:100FF0000D4BFF2109040A431A600B4B1A680A4B78
:10100000FF2109060A431A6000F098F8074B0022F6
:101010001A60FFF7CDFF01F08BFCFFF7A7FF00235D
:101020001800BD4680BDC04620ED00E00400002051
:1010300080B500AF054B802252051A60BFF34F8F79
:10104000BFF36F8FC046BD4680BDC04604ED00E0D3
:1010500080B500AF72B6064B1B685A1C044B1A6071
:10106000BFF34F8FBFF36F8FC046BD4680BDC046F4
:101070000400002080B500AF094B1B68002B01D194
:1010800072B6FEE7064B1B685A1E054B1A60044BEE
:101090001B68002B00D162B6C046BD4680BDC0466D
:1010A00004000020EFF3108072B67047C0461800AD
:1010B00080F310887047C046000000000000000068
:1010C000EFF309800E4B1A6820381060F0C04446D8
:1010D0004D4656465F46F0C008B572B601F028FC92
:1010E00062B60CBC116808681030F0C8A046A9466A
:1010F000B246BB4680F309882038F0C81847C0467E
:10110000C8160020C046C04680B582B000AFFFF7C9
:10111000C9FF03007B6001F057FB031E03D0064BA1
:10112000802252051A607B681800FFF7C1FFC04695
:10113000BD4602B080BDC04604ED00E080B500AF02
:101140000B4B00221A600B4B00221A600A4B1B68E3
:10115000FA2291001800FEF7D7FF03001A00074B90
:10116000013A1A60024B07221A60C046BD4680BD94
:1011700010E000E018E000E00000002014E000E0D3
:1011800080B586B000AF78600023FB6001F076FA8E
:10119000494B1B68002B01D100F0E0F8474B1B685E
:1011A0007A68134000D079E07B68002B12D00822C7
:1011B0007B689B187B607B68072213400AD07B68A2
:1011C0000722934308337B607B680722134001D0DA
:1011D00072B6FEE77B68002B60D0394B1B687A68DB
:1011E0009A425BD8374B3B61364B1B687B6104E00E
:1011F0007B693B617B691B687B617B695B687A68A3
:101200009A4203D97B691B68002BF1D12A4B1B68DA
:101210007A699A4242D03B691B6808229B18FB609E
:101220007B691A683B691A607B695A687B68D21AC5
:1012300008235B009A4216D97A697B68D318BB6091
:10124000BB680722134001D072B6FEE77B695A687B
:101250007B68D21ABB685A607B697A685A60BB683F
:10126000180000F0DBF8164B1A687B695B68D21A2D
:10127000134B1A60124B1A68134B1B689A4203D225
:101280000F4B1A68104B1A607B695A680B4B1B682E
:101290001A437B695A607B6900221A6001F0FAF9EF
:1012A000FB680722134001D072B6FEE7FB68180006
:1012B000BD4606B080BDC0467816002084160020CA
:1012C0007C160020701600208016002080B584B0A7
:1012D00000AF78607B68FB607B68002B35D008230B
:1012E0005B42FA68D318FB60FB68BB60BB685A6856
:1012F000184B1B68134001D172B6FEE7BB681B6830
:10130000002B01D072B6FEE7BB685A68114B1B6810
:1013100013401AD0BB681B68002B16D1BB685A68F3
:101320000C4B1B68DB431A40BB685A6001F0A6F9FE
:10133000BB685A68084B1B68D218074B1A60BB6819
:10134000180000F06BF801F0A5F9C046BD4604B0E6
:1013500080BDC046841600207C16002080B584B075
:1013600000AFC0231B01BB60264BFB60FB6807225C
:1013700013400CD0FB680733FB60FB6807229343E4
:10138000FB60BA68FB68D21A1E4BD318BB60FB68BF
:101390007B601D4B7A681A601B4B00225A607B6889
:1013A000BA68D318FB600822FB689B1AFB60FB68D5
:1013B00007229343FB60FA68144B1A60134B1B68B7
:1013C00000225A60114B1B6800221A607B683B6048
:1013D0003B68FA68D21A3B685A600C4B1A683B6843
:1013E0001A603B685A680A4B1A603B685A68094B96
:1013F0001A60094B802212061A60C046BD4604B02E
:1014000080BDC046700A00207016002078160020AB
:10141000801600207C1600208416002080B584B041
:1014200000AF7860274BFB6002E0FB681B68FB6045
:10143000FB681B687A689A42F7D8FB68BB60FB6858
:101440005B68BA68D3187A689A4208D1FB685A6810
:101450007B685B68D218FB685A60FB687B607B68BE
:10146000BB607B685B68BA68D218FB681B689A42ED
:1014700018D1FB681A68144B1B689A420DD07B6820
:101480005A68FB681B685B68D2187B685A60FB6807
:101490001B681A687B681A6008E00B4B1A687B6847
:1014A0001A6003E0FB681A687B681A60FA687B6858
:1014B0009A4202D0FB687A681A60C046BD4604B002
:1014C00080BDC046701600207816002080B584B01C
:1014D00000AF786039607B68FB60FB68002B01D14E
:1014E00072B6FEE7FFF7B4FDFB681A68FB68D96BBC
:1014F000FB681B6C4B43D218FB685A60FB680022E8
:101500009A63FB681A68FB689A60FB681A68FB6854
:10151000DB6B591EFB681B6C4B43D218FB68DA600F
:10152000FB684422FF219954FB684522FF2199540E
:101530003B68002B0DD1FB681B69002B13D0FB68A7
:101540001033180001F092FA031E0CD0FFF770FD63
:1015500009E0FB6810331800FFF734FCFB68243304
:101560001800FFF72FFCFFF785FD01231800BD468B
:1015700004B080BD90B589B002AFF860B9607A6000
:101580003B60FB68002B01D172B6FEE73B68002B85
:1015900001D172B6FEE77B68002B02D0BB68002B3E
:1015A00001D0012300E00023002B01D172B6FEE739
:1015B0007B68002B02D1BB68002B01D1012300E026
:1015C0000023002B01D172B6FEE750233B613B693B
:1015D000502B01D072B6FEE73B687B617B69002B24
:1015E0000ED07B694622012199542823FB181C78D0
:1015F0007A68B968F8687B690093230000F03BF8CB
:101600007B691800BD4607B090BD90B58BB002AFA6
:10161000F860B960FB1D1A70FB68002B01D172B62F
:10162000FEE7BB68002B02D10023FB6103E0FB68EF
:10163000BA685343FB61FB6950331800FFF7A0FD04
:101640000300BB61BB69002B10D0BB6950337B61C9
:10165000BB69462200219954FB1D1C787A69B96840
:10166000F868BB690093230000F005F8BB69180017
:10167000BD4609B090BD80B584B000AFF860B960D8
:101680007A601A00FB1C1A70BB68002B03D1BB697F
:10169000BA691A6002E0BB697A681A60BB69FA68C5
:1016A000DA63BB69BA681A64BB6901211800FFF7E5
:1016B0000DFFBB69FA1C4C2112785A54C046BD4636
:1016C00004B080BD80B582B000AF78607B68002B2D
:1016D0000ED07B6800225A607B6800221A607B680B
:1016E0000022DA60786800230022002100F020F850
:1016F000C046BD4602B080BD80B586B000AF0200D6
:10170000FB1D1A7001237B6100233B61FB1D1A78CE
:1017100039697B691800FFF778FF0300FB60FB68FD
:101720001800FFF7CFFFFB681800BD4606B080BD6C
:1017300080B58AB000AFF860B9607A603B60002382
:101740007B62FB683B623B6A002B01D172B6FEE70D
:10175000BB68002B03D13B6A1B6C002B01D101231A
:1017600000E00023002B01D172B6FEE73B68022B9C
:1017700003D13B6ADB6B012B01D1012300E0002385
:10178000002B01D172B6FEE701F00EFB031E02D161
:101790007B68002B01D1012300E00023002B01D145
:1017A00072B6FEE7FFF754FC3B6A9A6B3B6ADB6B51
:1017B0009A4202D33B68022B1ED13A68B9683B6A51
:1017C000180000F08FFA0300FB613B6A5B6A002B94
:1017D00009D03B6A2433180001F048F9031E07D0F2
:1017E000FFF726FC04E0FB69002B01D0FFF720FC8B
:1017F000FFF740FC01235BE07B68002B03D1FFF780
:1018000039FC002354E07B6A002B06D11423FB181B
:10181000180001F087F901237B62FFF72BFC00F031
:101820002DFFFFF715FC3B6A44229B5C5BB2013342
:1018300003D13B6A4422002199543B6A45229B5CB8
:101840005BB2013303D13B6A452200219954FFF773
:1018500011FC3A1D1423FB181100180001F076F951
:10186000031E1ED13B6A180000F041FB031E11D07D
:101870003B6A10337A681100180001F0B3F83B6A34
:10188000180000F0C0FA00F005FF031E8AD1FFF730
:10189000CFFB87E73B6A180000F0B5FA00F0FAFECC
:1018A00080E73B6A180000F0AEFA00F0F3FE002378
:1018B0001800BD460AB080BD90B589B000AFF86091
:1018C000B9607A603B60FB68BB61BB69002B01D1EA
:1018D00072B6FEE7BB68002B03D1BB691B6C002B03
:1018E00001D1012300E00023002B01D172B6FEE7F5
:1018F0003B68022B03D1BB69DB6B012B01D10123B8
:1019000000E00023002B01D172B6FEE7FFF7CAFB0F
:1019100003007B61BB699A6BBB69DB6B9A4202D3A4
:101920003B68022B2ED113243B19BA694521525C26
:101930001A703A68B968BB69180000F0D3F93B190E
:101940001B785BB2013311D1BB695B6A002B16D0E7
:10195000BB692433180001F089F8031E0FD07B689F
:10196000002B0CD07B6801221A6008E01323FB18BF
:101970001B780133DBB259B2BB694522995401236C
:10198000FB6101E00023FB617B691800FFF790FB1E
:10199000FB691800BD4609B090BD80B58AB000AFA4
:1019A000F860B9607A6000237B62FB683B623B6A47
:1019B000002B01D172B6FEE7BB68002B03D13B6A56
:1019C0001B6C002B01D1012300E00023002B01D16F
:1019D00072B6FEE701F0E8F9031E02D17B68002B26
:1019E00001D1012300E00023002B01D172B6FEE7F4
:1019F000FFF72EFB3B6A9B6BFB61FB69002B1AD048
:101A0000BA683B6A1100180000F0D7F9FB695A1E4A
:101A10003B6A9A633B6A1B69002B08D03B6A103310
:101A2000180001F023F8031E01D0FFF701FBFFF7B8
:101A300021FB012362E07B68002B03D1FFF71AFB37
:101A400000235BE07B6A002B06D11423FB181800EF
:101A500001F068F801237B62FFF70CFB00F00EFE3B
:101A6000FFF7F6FA3B6A44229B5C5BB2013303D179
:101A70003B6A4422002199543B6A45229B5C5BB23D
:101A8000013303D13B6A452200219954FFF7F2FA52
:101A90003A1D1423FB181100180001F057F8031E1B
:101AA0001ED13B6A180000F00CFA031E11D03B6AED
:101AB00024337A681100180000F094FF3B6A180084
:101AC00000F0A1F900F0E6FD031E91D1FFF7B0FA96
:101AD0008EE73B6A180000F096F900F0DBFD87E71F
:101AE0003B6A180000F08FF900F0D4FD3B6A180043
:101AF00000F0E7F9031E00D17AE700231800BD4685
:101B00000AB080BD80B58AB000AF7860396000232C
:101B10007B627B68FB6100233B62FB69002B01D188
:101B200072B6FEE7FB691B6C002B01D072B6FEE7B4
:101B300001F03AF9031E02D13B68002B01D10123C9
:101B400000E00023002B01D172B6FEE7FFF780FA18
:101B5000FB699B6BBB61BB69002B1DD0BB695A1E27
:101B6000FB699A63FB691B68002B04D101F076FACC
:101B70000200FB695A60FB691B69002B08D0FB69F6
:101B80001033180000F072FF031E01D0FFF750FA67
:101B9000FFF770FA01238BE03B68002B08D13B6A0A
:101BA000002B01D072B6FEE7FFF764FA00237FE056
:101BB0007B6A002B06D10C23FB18180000F0B2FF43
:101BC00001237B62FFF756FA00F058FDFFF740FA59
:101BD000FB6944229B5C5BB2013303D1FB69442265
:101BE00000219954FB6945229B5C5BB2013303D110
:101BF000FB69452200219954FFF73CFA3A000C2377
:101C0000FB181100180000F0A1FF031E2ED1FB6984
:101C1000180000F056F9031E21D0FB691B68002B49
:101C20000AD1FFF715FAFB695B68180001F0D8F8D4
:101C300003003B62FFF71EFAFB6924333A68110088
:101C4000180000F0CFFEFB69180000F0DCF800F08F
:101C500021FD031E00D079E7FFF7EAF976E7FB697B
:101C6000180000F0D0F800F015FD6FE7FB691800D0
:101C700000F0C9F800F00EFDFB69180000F021F932
:101C8000031E00D162E73B6A002B10D0FFF7E0F99A
:101C9000FB69180000F010F803007B61FB695B68CA
:101CA0007A691100180001F065F9FFF7E3F90023E4
:101CB0001800BD460AB080BD80B584B000AF786022
:101CC0007B685B6A002B06D07B681B6B1B68382225
:101CD000D31AFB6001E00023FB60FB681800BD46DF
:101CE00004B080BD80B586B000AFF860B9607A609E
:101CF00000237B61FB689B6B3B61FB681B6C002BCB
:101D00000ED1FB681B68002B4ED1FB685B68180086
:101D100001F0D4F803007B61FB6800225A6043E0C5
:101D20007B68002B19D1FB689868FB681A6CBB684C
:101D3000190003F02BFEFB689A68FB681B6CD21835
:101D4000FB689A60FB689A68FB685B689A422BD3D1
:101D5000FB681A68FB689A6026E0FB68D868FB6835
:101D60001A6CBB68190003F011FEFB68DA68FB68A7
:101D70001B6C5B42D218FB68DA60FB68DA68FB68B0
:101D80001B689A4207D2FB685A68FB681B6C5B426F
:101D9000D218FB68DA607B68022B05D13B69002B07
:101DA00002D03B69013B3B613B695A1CFB689A636B
:101DB0007B691800BD4606B080BD80B582B000AF1B
:101DC000786039607B681B6C002B18D07B68DA6800
:101DD0007B681B6CD2187B68DA607B68DA687B688A
:101DE0005B689A4203D37B681A687B68DA607B6819
:101DF000D9687B681A6C3B68180003F0C7FDC046C1
:101E0000BD4602B080BD80B584B000AF7860FFF7FA
:101E10001FF90F23FB187A684521525C1A7013E0F2
:101E20007B685B6A002B16D07B682433180000F0B7
:101E30001DFE031E01D000F0D9FE0F217B181B7878
:101E4000013BDAB27B181A700F23FB181B785BB2C8
:101E5000002BE5DC00E0C0467B684522FF21995459
:101E6000FFF708F9FFF7F4F80E23FB187A6844210E
:101E7000525C1A7013E07B681B69002B16D07B68DC
:101E80001033180000F0F2FD031E01D000F0AEFE8A
:101E90000E217B181B78013BDAB27B181A700E23D7
:101EA000FB181B785BB2002BE5DC00E0C0467B68CA
:101EB0004422FF219954FFF7DDF8C046BD4604B027
:101EC00080BD80B584B000AF7860FFF7C1F87B6853
:101ED0009B6B002B02D10123FB6001E00023FB6020
:101EE000FFF7C8F8FB681800BD4604B080BD80B598
:101EF00084B000AF7860FFF7ABF87B689A6B7B68C3
:101F0000DB6B9A4202D10123FB6001E00023FB60FE
:101F1000FFF7B0F8FB681800BD4604B080BD0000B4
:101F200080B584B000AF786039600023FB6015E0B5
:101F30000E4BFA68D200D358002B0CD10B4BFA6829
:101F4000D2003968D150094AFB68DB00D31804334A
:101F50007A681A6006E0FB680133FB60FB68072BB8
:101F6000E6D9C046C046BD4604B080BD88160020F4
:101F700080B586B000AFF860B9607A60FB687B61BD
:101F8000FFF766F87B6944229B5C5BB2013303D1A7
:101F90007B694422002199547B6945229B5C5BB29A
:101FA000013303D17B69452200219954FFF762F880
:101FB0007B699B6B002B06D17B6924337A68B968F7
:101FC000180000F02DFD7B691800FFF71CFFC046CC
:101FD000BD4606B080BD90B58DB004AFF860B96065
:101FE0007A603B607B6B002B01D172B6FEE7BB6B66
:101FF000002B01D172B6FEE7BC237B617B69BC2B51
:1020000001D072B6FEE7BB6B002B20D07B6B002BA0
:102010001DD0BB6BFB61FB697A6B1A63FB69B9224C
:10202000022199543C687A68B968F86800230393E0
:10203000FB6902931823FB1801933B6B0093230069
:1020400000F058F8FB69180000F0ECF801E00023FC
:10205000BB61BB691800BD4609B090BD90B58DB09D
:1020600004AFF860B9603B60BB1D1A80BB1D1B88C4
:102070009B001800FFF784F803007B617B69002B4D
:1020800010D0BC20FFF77CF80300FB61FB69002B3C
:1020900003D0FB697A691A6306E07B691800FFF7D1
:1020A00015F901E00023FB61FB69002B1AD0FB69E5
:1020B000B92200219954BB1D1A883C68B968F86898
:1020C00000230393FB6902937B6B01933B6B0093AB
:1020D000230000F00FF8FB69180000F0A3F80123BB
:1020E000BB6102E001235B42BB61BB691800BD46D6
:1020F00009B090BD80B586B000AFF860B9607A6075
:102100003B60BB6A186B7B689B001A00A52103F03B
:1021100046FCBB6A1A6B7B683E498C4663449B0055
:10212000D3183B613B69072293433B613B6907221C
:10213000134001D072B6FEE700237B6113E0BA685A
:102140007B69D3181878BA6A34217B69D3185B1875
:10215000021C1A70BA687B69D3181B78002B06D052
:102160007B6901337B617B690F2BE8D900E0C046B6
:10217000BB6A4322002199543B6A372B01D937238C
:102180003B62BB6A3A6ADA62BB6A3A6ADA64BB6A81
:1021900000221A65BB6A04331800FEF731FEBB6AE1
:1021A00018331800FEF72CFEBB6ABA6A1A613B6A44
:1021B0003822D21ABB6A9A61BB6ABA6A5A62BB6A8F
:1021C000B42200219950BB6AB82200219954BB6AFD
:1021D000543360220021180003F0E1FBBB6A0E4A71
:1021E0009A65BB6A0D4ADA65BB6A0D4A1A663A6897
:1021F000F9683B691800FEF78FFE0200BB6A1A609F
:102200007B6A002B02D07B6ABA6A1A60C046BD4660
:1022100006B080BDFFFFFF3FE465000804660008CC
:10222000C465000880B582B000AF7860FEF710FF8B
:102230002A4B1B685A1C294B1A60294B1B68002B20
:1022400009D1274B7A681A60244B1B68012B10D1E7
:1022500000F0E6FC0DE0234B1B68002B09D1204B5E
:102260001B68DA6A7B68DB6A9A4202D81C4B7A6880
:102270001A601D4B1B685A1C1B4B1A601A4B1A68BC
:102280007B685A647B68DA6A184B1B689A4203D9E8
:102290007B68DA6A154B1A607B68DA6A13009B0068
:1022A0009B189B00124A9A187B680433190010008F
:1022B000FEF7B1FDFEF7DEFE0A4B1B68002B08D0CF
:1022C000074B1B68DA6A7B68DB6A9A4201D2FEF729
:1022D000AFFEC046BD4602B080BDC0469C1B00207C
:1022E000C8160020A81B0020B81B0020A41B00203B
:1022F000CC16002080B586B000AF7860396000232E
:102300007B617B68002B01D172B6FEE73B68002B36
:1023100001D172B6FEE7234B1B68002B01D072B6C9
:10232000FEE700F0ABF9204B1B683B617B681B6844
:102330003A68D318FB607B681B683A699A420BD2F3
:102340007B681B68FA689A4211D2FA683B699A4224
:102350000DD901237B610AE07B681B68FA689A4209
:1023600003D3FA683B699A4201D901237B617B68F8
:10237000FA681A607B69002B06D0FA683B69D31AA9
:102380000021180000F07CFE00F084F90300BB601F
:10239000BB68002B01D1FEF74BFEC046BD4606B020
:1023A00080BDC046C41B0020A01B002080B584B0A7
:1023B00000AF78600023FB607B68002B10D00D4BD2
:1023C0001B68002B01D072B6FEE700F057F97B685E
:1023D0000021180000F054FE00F05CF90300FB60DF
:1023E000FB68002B01D1FEF723FEC046BD4604B0BA
:1023F00080BDC046C41B002080B584B000AF7860AB
:10240000FEF726FE7B68002B02D1294B1B6800E0FB
:102410007B68FB60FB6804331800FEF754FDFB6823
:102420009B6A002B04D0FB6818331800FEF74BFDA5
:10243000FB681A1D1F4B11001800FEF7ECFCFB682F
:10244000B8229B5CDBB2012B03D1FB68B8220021D0
:102450009954FEF70FFE184B1B68002B05D0FEF7B2
:10246000F7FD00F07DFCFEF705FE114B1B68FA68D6
:102470009A4218D1104B1B68002B08D00F4B1B68D9
:10248000002B01D072B6FEE7FEF7D2FD0BE0094B40
:102490001A680B4B1B689A4203D1054B00221A6045
:1024A00001E000F045FAC046BD4604B080BDC0461C
:1024B000C8160020881B0020A81B0020C41B002079
:1024C0009C1B002080B584B000AF78600023FB60C7
:1024D0007B68BB607B68002B01D172B6FEE7BB68EE
:1024E0005A690E4B9A4201D1012300E00023002BD0
:1024F0000FD0BB689A6A0A4B9A420AD0BB689B6AA3
:10250000002B01D1012300E00023002B01D0012387
:10251000FB60FB681800BD4604B080BD881B00202E
:102520005C1B002080B584B000AF78607B68FB60E6
:102530007B68002B01D172B6FEE7FB68002B34D01C
:102540001C4B1B68FA689A422FD0FEF781FDFB688E
:102550001800FFF7B7FF031E25D0FB6804331800EF
:10256000FEF7B1FCFB68DA6A134B1B689A4203D989
:10257000FB68DA6A104B1A60FB68DA6A13009B008A
:102580009B189B000D4A9A18FB6804331900100031
:10259000FEF741FCFB68DA6A064B1B68DB6A9A426D
:1025A00001D3FEF745FDFEF765FDC046BD4604B00C
:1025B00080BDC046C8160020A41B0020CC160020F9
:1025C00090B589B004AF0023BB6000237B603A0064
:1025D000391D0823FB181800FEF7C4FB3C687B6814
:1025E000BA681E491E4802920193002300930023FB
:1025F0002200FFF7F0FC02001A4B1A60194B1B680F
:10260000002B02D00123FB6001E00023FB60FB688C
:10261000012B03D100F088FD0300FB60FB68012B58
:1026200013D172B6104B1B6854331A000F4B1A604B
:102630000F4B012252421A600E4B01221A600E4BC0
:1026400000221A60FEF7D0FC04E0FB68013301D1E0
:1026500072B6FEE7C046BD4605B090BD4C650008A9
:10266000012C0008C01B0020C8160020100000200C
:10267000BC1B0020A81B0020A01B002080B500AFC1
:10268000034B1B685A1C024B1A60C046BD4680BDF6
:10269000C41B002080B584B000AF0023FB60002382
:1026A000BB603A4B1B68002B01D172B6FEE7FEF708
:1026B000CFFC364B1B685A1E344B1A60334B1B68D9
:1026C000002B5BD1324B1B68002B57D02FE0314BD6
:1026D000DB68DB68FB60FB6818331800FEF7F3FB70
:1026E000FB6804331800FEF7EEFBFB68DA6A2A4B3E
:1026F0001B689A4203D9FB68DA6A274B1A60FB68A9
:10270000DA6A13009B009B189B00244A9A18FB6806
:10271000043319001000FEF77EFBFB68DA6A204BD9
:102720001B68DB6A9A4202D31E4B01221A60194BC6
:102730001B68002BCBD1FB68002B01D000F010FBF5
:10274000194B1B687B607B68002B0FD000F03CF8B6
:10275000031E02D0134B01221A607B68013B7B6091
:102760007B68002BF2D1104B00221A600D4B1B68C6
:10277000002B03D00123BB60FEF75AFCFEF77AFC66
:10278000BB681800BD4604B080BDC046C41B002015
:102790009C1B00205C1B0020A41B0020CC160020EA
:1027A000C8160020B01B0020AC1B002080B582B0F2
:1027B00000AF044B1B687B607B681800BD4602B00D
:1027C00080BDC046A01B002080B586B000AF0023AE
:1027D0007B614C4B1B68002B00D083E04A4B1B688D
:1027E00001333B61484B3A691A603B69002B17D1B2
:1027F000464B1B681B68002B01D072B6FEE7434BAB
:102800001B68FB60424B1A68404B1A60404BFA68E9
:102810001A60404B1B685A1C3E4B1A6000F0A0FA2D
:102820003D4B1B683A699A424ED3384B1B681B6874
:10283000002B01D1012300E00023002B04D0364BF4
:10284000012252421A603FE0304B1B68DB68DB68B4
:10285000BB60BB685B687B603A697B689A4203D265
:102860002D4B7A681A602FE0BB6804331800FEF71E
:102870002AFBBB689B6A002B04D0BB681833180086
:10288000FEF721FBBB68DA6A244B1B689A4203D926
:10289000BB68DA6A214B1A60BB68DA6A13009B00D6
:1028A0009B189B001E4A9A18BB680433190010003D
:1028B000FEF7B1FABB68DA6A1A4B1B68DB6A9A4208
:1028C000B3D301237B61B0E7164B1B68DA6A144966
:1028D00013009B009B189B005B58012B07D9012319
:1028E0007B6104E0104B1B685A1C0F4B1A600F4BA6
:1028F0001B68002B01D001237B617B691800BD465A
:1029000006B080BDC41B0020A01B0020541B00206B
:10291000581B0020B41B0020BC1B0020A41B00205F
:10292000CC160020C8160020AC1B0020B01B0020D5
:1029300080B582B000AF254B1B68002B03D0244B21
:1029400001221A603DE0224B00221A60214B1B68D5
:102950007B6007E07B68002B01D172B6FEE77B68E5
:10296000013B7B601C497A6813009B009B189B000D
:102970005B58002BEED07A6813009B009B189B00DD
:10298000154A9B183B603B685B685A683B685A6015
:102990003B685A683B6808339A4204D13B685B68DD
:1029A0005A683B685A603B685B68DA680B4B1A6090
:1029B000084B7A681A60094B1B6854331A00084B9D
:1029C0001A60C046BD4602B080BDC046C41B002090
:1029D000B01B0020A41B0020CC160020C81600202D
:1029E0001000002080B582B000AF786039607B684D
:1029F000002B01D172B6FEE7084B1B6818331A0092
:102A00007B6811001800FEF728FA3B6801211800C6
:102A100000F036FBC046BD4602B080BDC81600209F
:102A200080B584B000AFF860B9607A60FB68002BB5
:102A300001D172B6FEE70C4B1B6818331A00FB6815
:102A400011001800FEF7E7F97B68002B02D0012384
:102A50005B42BB607A68BB681100180000F010FB95
:102A6000C046BD4604B080BDC816002080B584B005
:102A700000AF78607B68DB68DB68BB60BB68002BFD
:102A800001D172B6FEE7BB6818331800FEF71BFAD7
:102A90001E4B1B68002B1DD1BB6804331800FEF7CA
:102AA00012FABB68DA6A1A4B1B689A4203D9BB68F0
:102AB000DA6A174B1A60BB68DA6A13009B009B182E
:102AC0009B00144A9A18BB68043319001000FEF7E3
:102AD000A2F907E0BB6818331A000F4B1100180069
:102AE000FEF799F9BB68DA6A0C4B1B68DB6A9A42FD
:102AF00005D90123FB600A4B01221A6001E0002383
:102B0000FB60FB681800BD4604B080BDC41B0020FC
:102B1000A41B0020CC1600205C1B0020C81600203F
:102B2000B01B002080B582B000AF7860054B1A68FA
:102B30007B681A60044B1A687B685A60C046BD46C1
:102B400002B080BDB41B0020A01B002080B586B061
:102B500000AF786039607B68002B01D172B6FEE768
:102B60003B68002B01D172B6FEE7FEF771FA1D4BF0
:102B70001B683B617B685B683A69D31AFB603B6802
:102B80001B68013302D100237B6124E07B681A6853
:102B9000154B1B689A4207D07B685B683A699A427A
:102BA00002D301237B6116E03B681B68FA689A42F6
:102BB0000CD23B681A68FB68D21A3B681A607B68C3
:102BC0001800FFF7AFFF00237B6104E03B680022A1
:102BD0001A6001237B61FEF74DFA7B691800BD4640
:102BE00006B080BDA01B0020B41B002080B500AF44
:102BF000024B01221A60C046BD4680BDB01B0020BA
:102C000080B582B000AF786000F04EF8034B1B68CF
:102C1000012BF9D9FEF70CFAF6E7C046CC160020D6
:102C200080B582B000AF00237B600CE07A681300AF
:102C30009B009B189B00144A9B181800FEF7C2F8D3
:102C40007B6801337B607B68372BEFD90F4B180013
:102C5000FEF7B8F80E4B1800FEF7B4F80D4B18004D
:102C6000FEF7B0F80C4B1800FEF7ACF80B4B180051
:102C7000FEF7A8F80A4B054A1A600A4B044A1A6084
:102C8000C046BD4602B080BDCC1600202C1B0020E3
:102C9000401B00205C1B0020701B0020881B0020B4
:102CA000541B0020581B002080B582B000AF1AE0F2
:102CB000FEF7CEF9104BDB68DB687B607B68043382
:102CC0001800FEF700F90D4B1B685A1E0B4B1A60DB
:102CD0000B4B1B685A1E0A4B1A60FEF7CBF97B6838
:102CE000180000F00FF8064B1B68002BE0D1C0461F
:102CF000C046BD4602B080BD701B00209C1B00205A
:102D0000841B002080B582B000AF78607B685433AC
:102D1000180002F0F3FE7B68B9229B5C002B09D1FE
:102D20007B681B6B1800FEF7D1FA7B681800FEF772
:102D3000CDFA10E07B68B9229B5C012B04D17B6843
:102D40001800FEF7C3FA06E07B68B9229B5C022BF1
:102D500001D072B6FEE7C046BD4602B080BD00009D
:102D600080B582B000AF0E4B1B681B68002B01D1F1
:102D7000012300E00023002B04D00A4B0122524221
:102D80001A6008E0064B1B68DB68DB687B607B68C9
:102D90005A68044B1A60C046BD4602B080BDC046AA
:102DA000541B0020BC1B002080B582B000AF0A4B32
:102DB0001B68002B02D101237B6008E0074B1B68D6
:102DC000002B02D102237B6001E000237B607B6843
:102DD0001800BD4602B080BDA81B0020C41B002007
:102DE00080B584B000AF78607B68BB600023FB6077
:102DF0007B68002B56D0BB68DA6A2D4B1B68DB6AF8
:102E00009A4246D2BB689B69002B06DB284B1B68A5
:102E1000DB6A3822D21ABB689A61BB685969BB6801
:102E2000DA6A13009B009B189B00224A9B18994268
:102E300001D1012300E00023002B22D0BB68043322
:102E40001800FEF740F81A4B1B68DA6ABB68DA62B2
:102E5000BB68DA6A184B1B689A4203D9BB68DA6A06
:102E6000154B1A60BB68DA6A13009B009B189B0025
:102E7000104A9A18BB68043319001000FDF7CBFF05
:102E800004E00B4B1B68DA6ABB68DA620123FB6063
:102E900008E0BB68DA6C064B1B68DB6A9A4201D219
:102EA0000123FB60FB681800BD4604B080BDC0462E
:102EB000C8160020CC160020A41B002080B584B0CA
:102EC00000AF78607B68BB600023FB607B68002BF1
:102ED00044D0254B1B68BA689A4201D072B6FEE70F
:102EE000BB681B6D002B01D172B6FEE7BB681B6D82
:102EF0005A1EBB681A65BB68DA6ABB68DB6C9A420B
:102F00002CD0BB681B6D002B28D1BB680433180084
:102F1000FDF7D9FFBB68DA6CBB68DA62BB68DB6AB5
:102F20003822D21ABB689A61BB68DA6A0F4B1B68F9
:102F30009A4203D9BB68DA6A0C4B1A60BB68DA6A3A
:102F400013009B009B189B00094A9A18BB68043326
:102F500019001000FDF75FFF0123FB60FB681800FC
:102F6000BD4604B080BDC046C8160020A41B00208A
:102F7000CC16002080B586B000AF786039607B68E1
:102F80003B610123FB607B68002B5DD03B691B6DBF
:102F9000002B01D172B6FEE73B69DB6C3A689A42BE
:102FA00002D93B687B6102E03B69DB6C7B613B697A
:102FB000DB6A7A699A4247D03B691B6DFA689A428C
:102FC00042D1234B1B683A699A4201D172B6FEE79F
:102FD0003B69DB6ABB603B697A69DA623B699B6982
:102FE000002B04DB7B693822D21A3B699A613B696A
:102FF0005969BA6813009B009B189B00154A9B18DF
:10300000994201D1012300E00023002B1CD03B6931
:1030100004331800FDF757FF3B69DA6A0E4B1B6853
:103020009A4203D93B69DA6A0B4B1A603B69DA6A48
:1030300013009B009B189B00064A9A183B690433B7
:1030400019001000FDF7E7FEC046BD4606B080BD82
:10305000C8160020CC160020A41B002080B500AFAD
:10306000064B1B68002B04D0044B1B681A6D013201
:103070001A65024B1B681800BD4680BDC8160020AB
:1030800080B584B000AF78603960214B1B68FB606D
:10309000204B1B6804331800FDF715FF7B680133D4
:1030A0000BD13B68002B08D01A4B1B681A1D1A4B1A
:1030B00011001800FDF7AFFE26E0FA687B68D31810
:1030C000BB60144B1B68BA685A60BA68FB689A42C6
:1030D00009D2124B1A680F4B1B68043319001000F9
:1030E000FDF7BBFE10E00E4B1A680A4B1B68043359
:1030F00019001000FDF7B1FE0A4B1B68BA689A422E
:1031000002D2084BBA681A60C046BD4604B080BD02
:10311000A01B0020C8160020881B0020581B002080
:10312000541B0020BC1B002090B589B004AF0023C5
:10313000FB6000F087FA174B1B68002B20D00023A0
:10314000BB6000237B603A00391D0823FB18180080
:10315000FDF720FE3C687B68BA680F490F48029271
:1031600001930223009300232200FEF734FF0200A4
:103170000B4B1A600A4B1B68002B01D00123FB602C
:10318000FB68002B01D172B6FEE7FB681800BD4654
:1031900005B090BDF81B002054650008A932000856
:1031A000FC1B002090B58BB000AFF860B9607A606E
:1031B0003B6000237B62FB68002B01D172B6FEE707
:1031C0001C4B1B68002B30D014243B19BA681A60C2
:1031D0003B197A685A603B19FA689A60BB68052BFC
:1031E00019DCFFF7E1FD0300022B09D1114B186830
:1031F000BA6B39190023FEF79BFA03007B6214E0D7
:103200000C4B18681423F91800230022FEF790FADB
:1032100003007B6209E0074B18683A681423F91829
:103220000023FEF749FB03007B627B6A1800BD4662
:103230000BB090BDF81B002080B586B002AF78605F
:103240003960184B1B68DB68DB68FB60FB68043384
:103250001800FDF738FEFB68DB69012B19D1FB680C
:103260009A697B68D1187B683A68F86800F0B6F80C
:10327000031E0ED07A68F868002300930023002113
:10328000FFF790FF0300BB60BB68002B01D172B653
:10329000FEE7FB685B6AFA6810009847C046BD46C7
:1032A00004B080BDF01B002080B584B000AF786012
:1032B0000823FB18180000F051F80300FB60BA68FF
:1032C000FB681100180000F003F800F0C9F8EFE700
:1032D00080B584B000AF78603960FFF7CFF908237C
:1032E000FB18180000F05AF80300FB60BB68002BC5
:1032F00029D13B68002B0CD17A68FB689A4208D828
:10330000FFF7C8F9FA687B6811001800FFF794FF0F
:103310001BE03B68002B06D00E4B1B681B685A4213
:103320005341DBB23B600C4B18687A68FB68D31AD8
:103330003A681900FEF71CFEFFF7ACF9031E04D132
:10334000FDF776FE01E0FFF7A5F9C046BD4604B0E3
:1033500080BDC046F41B0020F81B002080B584B05F
:1033600000AF78600C4B1B681B685A425341DBB2BC
:103370001A007B681A607B681B68002B05D1064B1E
:103380001B68DB681B68FB6001E00023FB60FB68D7
:103390001800BD4604B080BDF01B002080B584B08D
:1033A00000AF7860FFF702FA0300FB600A4B1B686E
:1033B000FA689A4205D200F0EBF87B6801221A60A5
:1033C00002E07B6800221A60034BFA681A60FB680F
:1033D0001800BD4604B080BD001C002080B586B03A
:1033E00000AFF860B9607A603B6000237B61FB68E6
:1033F000BA685A60FB68FA681A61BA687B689A42D0
:1034000012D87A683B68D21AFB689B699A4202D349
:1034100001237B611BE0104B1A68FB680433190021
:103420001000FDF71AFD12E07A683B689A4206D256
:10343000BA683B689A4202D301237B6107E0074BDD
:103440001A68FB68043319001000FDF706FD7B695C
:103450001800BD4606B080BDF41B0020F01B002004
:1034600090B58DB002AF7FE00822BB181B68002B1F
:103470000FDABB1804337B627B6A002B01D172B672
:10348000FEE77B6A1A687B6A58687B6A9B6819004A
:1034900090470822BB181B68002B64DBBB189B6895
:1034A0003B623B6A5B69002B04D03B6A0433180023
:1034B000FDF709FD3B1D1800FFF770FF0300FB61DE
:1034C0000823FB181B68092B4ED89A002E4BD318E3
:1034D0001B689F4608243B195A683B6A9B69D118B0
:1034E0003B195B68FA69386AFFF778FF031E3BD027
:1034F0003B6A5B6A3A6A100098473B6ADB69012BBA
:1035000032D13B195A683B6A9B69D218386A00234A
:10351000009300230021FFF745FE0300BB61BB6958
:10352000002B21D172B6FEE70823FB185A683B6ACC
:103530009A613B6A9B69002B01D172B6FEE73B6A38
:103540009A69FB69D118FB69FA69386AFFF746FF87
:103550000AE03B6A2C229B5C002B05D13B6A1800D9
:10356000FDF7B4FE00E0C046084B1B680822B918FE
:1035700000221800FEF711FA031E00D074E7C046BF
:10358000C046BD460BB090BD7C650008F81B00200E
:1035900080B588B002AF3EE0284B1B68DB681B6833
:1035A0003B61264B1B68DB68DB68FB60FB68043310
:1035B0001800FDF788FCFB685B6AFA681000984702
:1035C000FB68DB69012B26D1FB689B693A69D3183C
:1035D000BB60BA683B699A420ED9FB68BA685A6008
:1035E000FB68FA681A61154B1A68FB680433190006
:1035F0001000FDF732FC0EE03A69F86800230093F2
:1036000000230021FFF7CEFD03007B607B68002BC9
:1036100001D172B6FEE7094B1B681B68002BBBD1BA
:10362000064B1B687B61064B1A68044B1A60044BFF
:103630007A691A60C046BD4606B080BDF01B002006
:10364000F41B002080B582B002AFFDF701FD164BE0
:103650001B68002B23D1154B1800FDF7B3FB144B4F
:103660001800FDF7AFFB134B104A1A60124B104ABB
:103670001A60124B124A0021009110210A20FDF716
:1036800079FF0200084B1A60074B1B68002B06D01D
:10369000054B1B680B4A11001800FEF741FCFDF7B3
:1036A000E9FCC046BD4680BDF81B0020C81B0020B9
:1036B000DC1B0020F01B0020F41B0020A41C0020B9
:1036C000041C00205C65000880B582B000AF0200D9
:1036D000FB1D1A70FB1D1B787F2B09D8FB1D1B7867
:1036E0001A001F231A40044B012191400A001A605E
:1036F000C046BD4602B080BD00E100E090B583B099
:1037000000AF02003960FB1D1A70FB1D1B787F2B78
:1037100028D82F4AFB1D1B785BB29B08C0339B0047
:103720009B58FA1D1278110003220A40D200FF2193
:1037300091400A00D2431A4011003B689B01FF22CE
:103740001A40FB1D1B78180003230340DB009A403E
:103750001F48FB1D1B785BB29B080A43C0339B00CC
:103760001A5031E01B4AFB1D1B7819000F230B4038
:10377000083B9B0806339B00D31804331B68FA1DD3
:103780001278110003220A40D200FF2191400A0062
:10379000D2431A4011003B689B01FF221A40FB1DD7
:1037A0001B78180003230340DB009A400948FB1DE7
:1037B0001B781C000F232340083B9B080A43063359
:1037C0009B00C31804331A60C046BD4603B090BDC9
:1037D00000E100E000ED00E080B584B000AFB9602A
:1037E0007A600F217B18021C1A70BA687B181B784C
:1037F0005BB211001800FFF781FFC046BD4604B060
:1038000080BD80B582B000AF0200FB1D1A70FB1DA9
:103810001B785BB21800FFF757FFC046BD4602B0E9
:1038200080BD000080B586B000AFF860B9607A60F6
:1038300000237B6100233B61FB685B79012B01D195
:10384000022329E0FB6801225A71FB6802221A71E7
:10385000FB681B681B687B61114A7B689A401300F8
:10386000DA437B6913407B61BB681A68BB685B689D
:1038700013433B613A697B689A4013007A691343AA
:103880007B61FB681B687A691A60FB6801221A7108
:10389000FB6800225A7100231800BD4606B080BDA7
:1038A000FE0F000080B582B000AF78607B68002B0F
:1038B00001D1012315E07B681B79DBB2002B06D117
:1038C0007B6800225A717B681800FDF731F87B682D
:1038D00002221A717B6800221A617B6801221A7128
:1038E00000231800BD4602B080BD000080B586B040
:1038F00000AF7860396000237B6155E13B681B684D
:1039000001217A6991400A001340FB60FB68002B9B
:1039100000D146E13B685B6803221340012B05D0D0
:103920003B685B6803221340022B30D17B689B68A5
:103930003B617B695B0003229A401300DA433B69D9
:1039400013403B613B68DA687B695B009A40130077
:103950003A6913433B617B683A699A607B685B68AC
:103960003B6101227B699A401300DA433B691340B3
:103970003B613B685B681B0901221A407B699A40E6
:1039800013003A6913433B617B683A695A603B68AC
:103990005B6803221340032B17D07B68DB683B6115
:1039A0007B695B0003229A401300DA433B691340B2
:1039B0003B613B689A687B695B009A4013003A69F7
:1039C00013433B617B683A69DA603B685B680322BA
:1039D0001340022B23D17B69DA087B6808329200FE
:1039E000D3583B617B69072213409B000F229A400A
:1039F0001300DA433B6913403B613B681A697B69FA
:103A000007210B409B009A4013003A6913433B6126
:103A10007B69DA087B68083292003969D1507B688B
:103A20001B683B617B695B0003229A401300DA4309
:103A30003B6913403B613B685B6803221A407B692A
:103A40005B009A4013003A6913433B617B683A6913
:103A50001A603B685A68C0239B02134000D1A0E063
:103A6000574B9A69564B01210A439A61544B9B6903
:103A700001221340BB60BB68524A7B699B0802333A
:103A80009B009B583B617B69032213409B000F22E4
:103A90009A401300DA433B6913403B617A689023F4
:103AA000DB059A4219D07B68474A934213D07B6862
:103AB000464A93420DD07B68454A934207D07B68C3
:103AC000444A934201D1042308E0052306E003237E
:103AD00004E0022302E0012300E000237A690321CD
:103AE0000A40920093403A6913433B6135497B6930
:103AF0009B0802339B003A695A50374B9B683B61E5
:103B0000FB68DA433B6913403B613B685A6880239A
:103B10005B03134003D03A69FB6813433B612E4BB0
:103B20003A699A602C4BDB683B61FB68DA433B697E
:103B300013403B613B685A6880239B03134003D0CA
:103B40003A69FB6813433B61234B3A69DA60224BC5
:103B50005B683B61FB68DA433B6913403B613B6850
:103B60005A6880239B02134003D03A69FB681343D1
:103B70003B61194B3A695A60174B1B683B61FB6804
:103B8000DA433B6913403B613B685A6880235B0220
:103B9000134003D03A69FB6813433B610E4B3A690B
:103BA0001A607B6901337B613B681A687B69DA4084
:103BB000131E00D0A2E6C046C046BD4606B080BD7A
:103BC00000100240000001400004004800080048C6
:103BD000000C0048001000480004014080B582B08D
:103BE00000AF786008001100BB1C021C1A807B1C0F
:103BF0000A1C1A707B1C1B78002B04D0BB1C1A8873
:103C00007B689A6103E0BB1C1A887B689A62C04695
:103C1000BD4602B080BD000080B582B000AF7860C4
:103C200039607B6841229B5CDBB2202B38D17B68FA
:103C300040229B5C012B01D1022332E07B684022B1
:103C4000012199547B684122242199547B681B6887
:103C50001A687B681B6801218A431A607B681B68AD
:103C60001A687B681B6811490A401A607B681B68E8
:103C700019687B681B683A680A431A607B681B688E
:103C80001A687B681B6801210A431A607B6841221D
:103C9000202199547B68402200219954002300E0A0
:103CA00002231800BD4602B080BDC046FFEFFFFFF3
:103CB00080B584B000AF786039607B6841229B5C3E
:103CC000DBB2202B39D17B6840229B5C012B01D1D8
:103CD000022333E07B684022012199547B68412212
:103CE000242199547B681B681A687B681B68012132
:103CF0008A431A607B681B681B68FB60FB68114A7B
:103D00001340FB603B681B02FA681343FB607B684F
:103D10001B68FA681A607B681B681A687B681B68F6
:103D200001210A431A607B684122202199547B6853
:103D3000402200219954002300E002231800BD46D0
:103D400004B080BDFFF0FFFF80B582B000AF7860A7
:103D50007B68002B01D1012382E07B6841229B5CC0
:103D6000DBB2002B07D17B684022002199547B688D
:103D70001800FCF723FE7B684122242199547B68BC
:103D80001B681A687B681B6801218A431A607B687C
:103D90005A687B681B6834490A401A617B681B6853
:103DA0009A687B681B6831490A409A607B68DB68C7
:103DB000012B08D17B689A687B681B688021090207
:103DC0000A439A6007E07B689A687B681B688421D5
:103DD00009020A439A607B68DB68022B04D17B6886
:103DE0001B68802212015A607B681B685A687B68D6
:103DF0001B681F490A435A607B681B68DA687B6846
:103E00001B681A490A40DA607B681A697B685B693B
:103E10001A4311007B689B691A027B681B680A437E
:103E2000DA607B68D9697B681A6A7B681B680A4319
:103E30001A607B681B681A687B681B6801210A434B
:103E40001A607B6800225A647B68412220219954C1
:103E50007B6800221A637B68422200219954002368
:103E60001800BD4602B080BDFFFFFFF0FF7FFFFFDF
:103E70000080000280B586B000AF786000233B610F
:103E80000023FB607B681A6880235B02134000D12B
:103E90008EE017203B1800221A706E4BDA698023DF
:103EA0005B05134010D16B4BDA696A4B80214905E1
:103EB0000A43DA61674BDA6980235B051340BB6014
:103EC000BB683B1801221A70634B1A6880235B00A1
:103ED00013401AD1604B1A685F4B802149000A4396
:103EE0001A6001F01DFD03003B6108E001F018FDC0
:103EF00002003B69D31A642B01D90323A6E0564B79
:103F00001A6880235B001340F0D0524B1A6AC0231A
:103F10009B001340FB60FB68002B34D07B685A6821
:103F2000C0239B001340FA689A422CD0494B1B6A6D
:103F30004A4A1340FB60474B1A6A464B80214902AC
:103F40000A431A62434B1A6A424B45490A401A62B5
:103F5000404BFA681A62FB680122134013D001F04B
:103F6000DFFC03003B6109E001F0DAFC02003B6981
:103F7000D31A3C4A934201D9032367E0354B1B6AAD
:103F800002221340F0D0334B1B6A344A134019000D
:103F90007B685A682F4B0A431A621723FB181B7859
:103FA000012B05D12B4BDA692A4B2F490A40DA61E4
:103FB0007B681B680122134009D0264B1B6B032230
:103FC000934319007B689A68224B0A431A637B6803
:103FD0001B680222134009D01E4B1B6B234A13405F
:103FE00019007B68DA681B4B0A431A637B681B68FD
:103FF0002022134009D0174B1B6B1022934319004A
:104000007B681A69134B0A431A637B681A6880231A
:104010009B02134009D00F4B1B6B80229343190066
:104020007B689A690B4B0A431A637B681A68802382
:10403000DB00134009D0074B1B6B40229343190050
:104040007B685A69034B0A431A6300231800BD4674
:1040500006B080BD0010024000700040FFFCFFFF72
:10406000FFFFFEFF88130000FFFFFFEFFFFFFCFFD5
:1040700080B588B000AF78607B68002B02D1012347
:1040800000F076FB7B681B680122134000D18EE0B4
:10409000C54B5B680C221340042B0ED0C24B5B68EF
:1040A0000C221340082B17D1BF4B5A68C0235B0268
:1040B0001A4080235B029A420ED1BB4B1A688023C0
:1040C0009B02134000D171E07B685B68002B00D03D
:1040D0006CE0012300F04CFB7B685B68012B07D18F
:1040E000B14B1A68B04B802149020A431A602FE095
:1040F0007B685B68002B0CD1AB4B1A68AA4BAB49B1
:104100000A401A60A84B1A68A74BA9490A401A60CE
:104110001EE07B685B68052B0ED1A34B1A68A24B8F
:104120008021C9020A431A609F4B1A689E4B802166
:1041300049020A431A600BE09B4B1A689A4B9B4951
:104140000A401A60984B1A68974B99490A401A60BE
:104150007B685B68002B14D001F0E2FB0300BB61BD
:1041600008E001F0DDFB0200BB69D31A642B01D922
:104170000323FDE28C4B1A6880239B021340F0D08E
:1041800015E001F0CDFB0300BB6108E001F0C8FBC6
:104190000200BB69D31A642B01D90323E8E2824BE6
:1041A0001A6880239B021340F0D100E0C0467B6870
:1041B0001B680222134000D16CE07B4B5B680C2231
:1041C00013400ED0784B5B680C221340082B1FD194
:1041D000754B5A68C0235B021A4080231B029A4227
:1041E00016D1714B1B680222134005D07B68DB6837
:1041F000012B01D00123BBE26B4B1B68F8229343D8
:1042000019007B681B69DA00674B0A431A6041E0BA
:104210007B68DB68002B24D0634B1A68624B01215A
:104220000A431A6001F07CFB0300BB6108E001F067
:1042300077FB0200BB69D31A022B01D9032397E253
:10424000594B1B6802221340F1D0574B1B68F822D0
:10425000934319007B681B69DA00534B0A431A60C9
:1042600018E0514B1A68504B01218A431A6001F043
:1042700057FB0300BB6108E001F052FB0200BB6981
:10428000D31A022B01D9032372E2474B1B68022287
:104290001340F1D17B681B680822134036D07B683D
:1042A000DB69002B19D0404B5A6A3F4B01210A436E
:1042B0005A6201F035FB0300BB6108E001F030FBFE
:1042C0000200BB69D31A022B01D9032350E2364BFB
:1042D0005B6A02221340F1D018E0334B5A6A324B2A
:1042E00001218A435A6201F01BFB0300BB6108E015
:1042F00001F016FB0200BB69D31A022B01D903237C
:1043000036E2294B5B6A02221340F1D17B681B68BD
:104310000422134000D1B5E01F203B1800221A7080
:10432000214BDA6980235B05134010D11E4BDA69FB
:104330001D4B802149050A43DA611B4BDA69802352
:104340005B051340FB60FB683B1801221A70194B98
:104350001A6880235B0013401AD1164B1A68154B5C
:10436000802149000A431A6001F0DAFA0300BB61B8
:1043700008E001F0D5FA0200BB69D31A642B01D919
:104380000323F5E10B4B1A6880235B001340F0D048
:104390007B689B68012B0FD1034B1A6A024B0121EA
:1043A0000A431A6236E0C04600100240FFFFFEFFDB
:1043B000FFFFFBFF007000407B689B68002B0CD167
:1043C000CA4B1A6AC94B01218A431A62C74B1A6A3F
:1043D000C64B04218A431A621CE07B689B68052B4C
:1043E0000CD1C24B1A6AC14B04210A431A62BF4B5B
:1043F0001A6ABE4B01210A431A620BE0BB4B1A6AD0
:10440000BA4B01218A431A62B84B1A6AB74B04218E
:104410008A431A627B689B68002B14D001F080FAF3
:104420000300BB6109E001F07BFA0200BB69D31A0B
:10443000AF4A934201D903239AE1AC4B1B6A022293
:104440001340F0D013E001F06BFA0300BB6109E008
:1044500001F066FA0200BB69D31AA54A934201D95A
:10446000032385E1A14B1B6A02221340F0D11F23D5
:10447000FB181B78012B05D19C4BDA699B4B9D499E
:104480000A40DA617B681B681022134063D07B68A6
:104490005B69012B2AD1954B5A6B944B04210A433B
:1044A0005A63924B5A6B914B01210A435A6301F0B4
:1044B00037FA0300BB6108E001F032FA0200BB6981
:1044C000D31A022B01D9032352E1884B5B6B0222E2
:1044D0001340F1D0854B5B6BF822934319007B6846
:1044E0009B69DA00814B0A435A6334E07B685B695D
:1044F000053311D17D4B5A6B7C4B04218A435A639F
:104500007A4B5B6BF822934319007B689B69DA0056
:10451000764B0A435A631EE0744B5A6B734B04216B
:104520000A435A63714B5A6B704B01218A435A6399
:1045300001F0F6F90300BB6108E001F0F1F90200B7
:10454000BB69D31A022B01D9032311E1674B5B6BC3
:1045500002221340F1D17B681B68202213405CD0FB
:10456000624B5B680C2213400C2B0ED05F4B5B68D8
:104570000C221340082B14D15C4B5A68C0235B02F9
:104580001A40C0235B029A420BD1584B5A6B8023CE
:104590009B02134040D07B681B6A012B3CD0012357
:1045A000E6E07B681B6A002B1BD0504B5A6B4F4BCD
:1045B000802149020A435A6301F0B2F90300BB614A
:1045C00008E001F0ADF90200BB69D31A022B01D952
:1045D0000323CDE0454B5A6B80239B021340F0D060
:1045E0001BE0424B5A6B414B43490A405A6301F06E
:1045F00097F90300BB6108E001F092F90200BB6982
:10460000D31A022B01D90323B2E0384B5A6B802313
:104610009B021340F0D100E0C0467B685B6A002B30
:1046200000D1A4E0314B5B680C221340082B00D171
:1046300078E07B685B6A022B4CD12C4B1A682B4BC1
:104640002E490A401A6001F06BF90300BB6108E0D3
:1046500001F066F90200BB69D31A022B01D90323CA
:1046600086E0224B1A6880239B041340F0D11F4B35
:10467000DB6A0F22934319007B681A6B1B4B0A43BA
:10468000DA621A4B5B681E4A134019007B68DA6ACB
:104690007B689B6A1A43154B0A435A60134B1A688E
:1046A000124B802149040A431A6001F039F90300D2
:1046B000BB6108E001F034F90200BB69D31A022B98
:1046C00001D9032354E0094B1A6880239B0413404B
:1046D000F0D04CE0054B1A68044B08490A401A60B8
:1046E00001F01EF90300BB6115E0C0460010024056
:1046F00088130000FFFFFFEFFFFFFEFFFFFFFFFE3D
:10470000FF7FC2FF01F00CF90200BB69D31A022B34
:1047100001D903232CE0184B1A6880239B04134013
:10472000F0D124E07B685B6A012B01D101231FE0FB
:10473000114B5B687B61104BDB6A3B617A69C0237C
:104740005B021A407B689B6A9A420ED13B690F223A
:104750001A407B681B6B9A4207D17A69F0239B034E
:104760001A407B68DB6A9A4201D0012300E00023F3
:104770001800BD4608B080BD0010024080B584B06E
:1047800000AF786039607B68002B01D10123BFE066
:10479000614B1B68012213403A689A4211D95E4B63
:1047A0001B680122934319005B4B3A680A431A6065
:1047B000594B1B68012213403A689A4201D00123E9
:1047C000A6E07B681B680222134015D07B681B683B
:1047D0000422134006D0514B5A68504BE021C900C7
:1047E0000A435A604D4B5B68F022934319007B6883
:1047F0009A684A4B0A435A607B681B68012213403F
:104800004CD07B685B68012B07D1444B1A6880232E
:104810009B02134020D101237AE07B685B68022B66
:1048200007D13E4B1A6880239B04134014D1012307
:104830006EE07B685B68032B07D1384B5A6B802393
:104840009B02134008D1012362E0344B1B68022213
:10485000134001D101235BE0304B5B68032293439B
:1048600019007B685A682D4B0A435A6001F058F8CA
:104870000300FB6009E001F053F80200FB68D31A63
:10488000274A934201D9032342E0244B5B680C2260
:104890001A407B685B689B009A42ECD11E4B1B68F8
:1048A000012213403A689A4211D21B4B1B68012225
:1048B00093431900184B3A680A431A60164B1B6859
:1048C000012213403A689A4201D0012320E07B681C
:1048D0001B680422134009D0104B5B68114A134037
:1048E00019007B68DA680D4B0A435A6000F020F823
:1048F00001000A4B5B681B090F2213400A4AD35C74
:104900000A00DA40094B1A600320FCF72DF9002356
:104910001800BD4604B080BD0020024000100240D7
:1049200088130000FFF8FFFF646500080000002006
:1049300080B586B000AF0023FB600023BB6000237E
:104940007B6100237B6000233B612D4B5B68FB6038
:10495000FB680C2213400C2B46D048D8042B02D005
:10496000082B03D043E0274B3B6143E0FB689B0CE3
:104970000F221340244AD35C7B60214BDB6A0F2259
:104980001340224AD35CBB60FA68C0235B021A4022
:1049900080235B029A4209D1B9681A48FBF7B4FB3D
:1049A00003001A007B6853437B611AE0FA68C02356
:1049B0005B021A40C0235B029A4209D1B9681448CD
:1049C000FBF7A2FB03001A007B6853437B6108E0FE
:1049D000B9680C48FBF798FB03001A007B68534347
:1049E0007B617B693B6105E0094B3B6102E0054B64
:1049F0003B61C0463B691800BD4606B080BDC0465D
:104A00000010024000127A00A4650008B465000896
:104A1000006CDC0280B500AF024B1B681800BD467D
:104A200080BDC0460000002080B500AFFFF7F2FF58
:104A30000100064B5B681B0A07221340044AD35C43
:104A4000D9400B001800BD4680BDC0460010024092
:104A50007465000880B582B000AF786039607B680B
:104A600007221A600E4B5B6803221A407B685A606B
:104A70000B4B5B68F0221A407B689A60084B5A68BF
:104A8000E023DB001A407B68DA60064B1B680122DA
:104A90001A403B681A60C046BD4602B080BDC046A1
:104AA000001002400020024080B582B000AF786064
:104AB000C046BD4602B080BD80B582B000AF786010
:104AC000C046BD4602B080BD80B582B000AF786000
:104AD0007B68002B01D1012342E07B683D229B5C77
:104AE000DBB2002B07D17B683C22002199547B6804
:104AF000180000F039F87B683D22022199547B6848
:104B00001A687B6804331900100000F0BDF97B6857
:104B10004622012199547B683E22012199547B68E9
:104B20003F22012199547B684022012199547B68DE
:104B30004122012199547B684222012199547B68CA
:104B40004322012199547B684422012199547B68B6
:104B50004522012199547B683D220121995400236B
:104B60001800BD4602B080BD80B582B000AF78604D
:104B7000C046BD4602B080BD80B584B000AF78604D
:104B80007B683D229B5CDBB2012B01D001233BE023
:104B90007B683D22022199547B681B68DA687B6838
:104BA0001B6801210A43DA607B681B68184A93423C
:104BB0000FD07B681A688023DB059A4209D07B6896
:104BC0001B68144A934204D07B681B68124A9342C4
:104BD00011D17B681B689B6807221340FB60FB6850
:104BE000062B10D07B681B681A687B681B68012144
:104BF0000A431A6007E07B681B681A687B681B68B9
:104C000001210A431A6000231800BD4604B080BD8C
:104C1000002C0140000400400040014080B582B0FB
:104C200000AF78607B681B681B6902221340022B6F
:104C300024D17B681B68DB6802221340022B1DD144
:104C40007B681B68032252421A617B6801221A7733
:104C50007B681B689B690322134004D07B681800A3
:104C600000F0FAF807E07B68180000F0EDF87B68C8
:104C7000180000F0F9F87B6800221A777B681B683F
:104C80001B6904221340042B25D17B681B68DB6859
:104C900004221340042B1ED17B681B68052252425C
:104CA0001A617B6802221A777B681B689A69C023A5
:104CB0009B00134004D07B68180000F0CDF807E09B
:104CC0007B68180000F0C0F87B68180000F0CCF892
:104CD0007B6800221A777B681B681B6908221340D7
:104CE000082B24D17B681B68DB6808221340082B43
:104CF0001DD17B681B68092252421A617B6804221D
:104D00001A777B681B68DB690322134004D07B6839
:104D1000180000F0A1F807E07B68180000F094F894
:104D20007B68180000F0A0F87B6800221A777B6887
:104D30001B681B6910221340102B25D17B681B6850
:104D4000DB6810221340102B1ED17B681B681122D8
:104D500052421A617B6808221A777B681B68DA69FD
:104D6000C0239B00134004D07B68180000F074F847
:104D700007E07B68180000F067F87B68180000F017
:104D800073F87B6800221A777B681B681B69012215
:104D90001340012B0FD17B681B68DB680122134095
:104DA000012B08D17B681B68022252421A617B6882
:104DB0001800FBF721FC7B681B681B6980221340ED
:104DC000802B0FD17B681B68DB6880221340802B0F
:104DD00008D17B681B68812252421A617B681800E7
:104DE000FFF76AFE7B681B681B6940221340402B5B
:104DF0000FD17B681B68DB6840221340402B08D131
:104E00007B681B68412252421A617B68180000F0DF
:104E100033F87B681B681B6920221340202B0FD1BD
:104E20007B681B68DB6820221340202B08D17B683D
:104E30001B68212252421A617B681800FFF734FE7A
:104E4000C046BD4602B080BD80B582B000AF78607C
:104E5000C046BD4602B080BD80B582B000AF78606C
:104E6000C046BD4602B080BD80B582B000AF78605C
:104E7000C046BD4602B080BD80B582B000AF78604C
:104E8000C046BD4602B080BD80B584B000AF78603A
:104E900039607B681B68FB607B68344A934208D0AA
:104EA0007A688023DB059A4203D07B68304A9342BC
:104EB00008D1FB6870229343FB603B685B68FA682B
:104EC0001343FB607B68294A934218D07A68802399
:104ED000DB059A4213D07B68254A93420FD07B684A
:104EE000244A93420BD07B68234A934207D07B68C5
:104EF000224A934203D07B68214A934208D1FB683F
:104F0000204A1340FB603B68DB68FA681343FB6090
:104F1000FB68802293431A003B685B691343FB6084
:104F20007B68FA681A603B689A687B68DA623B685B
:104F30001A687B689A627B680C4A93420BD07B6844
:104F40000D4A934207D07B680C4A934203D07B689A
:104F50000B4A934203D13B681A697B681A637B68EA
:104F600001225A61C046BD4604B080BD002C0140FC
:104F70000004004000200040004001400044014087
:104F800000480140FFFCFFFF80B582B000AF7860B1
:104F90007B68002B01D1012344E07B68DB6F002B91
:104FA00007D17B687822002199547B681800FBF7B1
:104FB0008FFD7B682422DA677B681B681A687B6830
:104FC0001B6801218A431A607B68180000F0D0F842
:104FD0000300012B01D1012324E07B685B6A002BD5
:104FE00003D07B68180000F04BFA7B681B685A6896
:104FF0007B681B680D490A405A607B681B689A6889
:105000007B681B682A218A439A607B681B681A6840
:105010007B681B6801210A431A607B68180000F056
:10502000E3FA03001800BD4602B080BDFFB7FFFFE2
:1050300080B58AB002AFF860B9603B60BB1D1A80D2
:10504000FB68DB6F202B00D08DE0BB68002B03D00A
:10505000BB1D1B88002B01D1012385E0FB689A68EA
:1050600080235B019A4209D1FB681B69002B05D1A3
:10507000BB680122134001D0012375E0FB68842244
:1050800000219950FB682122DA6700F049FC0300F7
:105090007B61FB68BA1D502112885A52FB68BA1D09
:1050A000522112885A52FB689A6880235B019A4207
:1050B00008D1FB681B69002B04D10023FB61BB688E
:1050C000BB6103E0BB68FB610023BB6130E07A6930
:1050D000F8683B68009313000022802100F02CFB4D
:1050E000031E04D0FB682022DA6703233CE0FB693F
:1050F000002B0BD1BB691A88FB681B68D205D20D47
:1051000092B21A85BB690233BB6108E0FB691A7869
:10511000FB681B6892B21A85FB690133FB61FB686F
:1051200052229B5A9BB2013B99B2FB685222995280
:10513000FB6852229B5A9BB2002BC8D17A69F8684F
:105140003B68009313000022402100F0F5FA031E93
:1051500004D0FB682022DA67032305E0FB682022E5
:10516000DA67002300E002231800BD4608B080BDC6
:1051700080B588B000AF78601E23FB1800221A703B
:105180007B689A687B681B691A437B685B691A4372
:105190007B68DB6913437B617B681B681B68AF4AD4
:1051A000134019007B681B687A690A431A607B68A0
:1051B0001B685B68AA4A134019007B68DA687B6841
:1051C0001B680A435A607B689B697B617B681B6A2A
:1051D0007A6913437B617B681B689B68A14A134013
:1051E00019007B681B687A690A439A607B681B68B0
:1051F0009D4A934227D19D4B1B6B03221340032BE7
:105200000DD01BD8022B14D018D8002B02D0012BA4
:105210000AD013E01F23FB1800221A7065E01F2339
:10522000FB1802221A7060E01F23FB1804221A7078
:105230005BE01F23FB1808221A7056E01F23FB189F
:1052400010221A7051E07B681B68894A934234D15E
:10525000864B1A6BC0239B021340C02292029342DA
:1052600017D0C0229202934222D880229202934207
:1052700019D08022920293421AD8002B04D08022A7
:10528000520293420AD013E01F23FB1800221A7027
:105290002BE01F23FB1802221A7026E01F23FB18A5
:1052A00004221A7021E01F23FB1808221A701CE048
:1052B0001F23FB1810221A7017E07B681B686D4AC9
:1052C000934204D11F23FB1800221A700DE07B6863
:1052D0001B68694A934204D11F23FB1800221A70ED
:1052E00003E01F23FB1810221A707B68DA69802301
:1052F0001B029A425CD11F23FB181B78082B15D088
:1053000018DC042B0DD015DC002B02D0022B05D0AD
:1053100010E0FFF789FB0300BB6112E0574BBB6154
:105320000FE0FFF705FB0300BB610AE080231B02CF
:10533000BB6106E00023BB611E23FB1801221A702B
:10534000C046BB69002B00D17AE0BB695A007B687C
:105350005B685B08D2187B685B6819001000FAF77D
:10536000D3FE03003B613B690F2B1CD93A698023B4
:105370005B029A4217D23B699AB20E203B180F216A
:105380008A431A803B695B089BB20722134099B29B
:105390003B183A1812880A431A807B681B683A182F
:1053A0001288DA604CE01E23FB1801221A7047E0D5
:1053B0001F23FB181B78082B15D018DC042B0DD0ED
:1053C00015DC002B02D0022B05D010E0FFF72CFBE0
:1053D0000300BB6112E0294BBB610FE0FFF7A8FAA5
:1053E0000300BB610AE080231B02BB6106E00023CF
:1053F000BB611E23FB1801221A70C046BB69002B3B
:105400001ED07B685B685A08BB69D2187B685B68F2
:1054100019001000FAF778FE03003B613B690F2B7F
:105420000AD93A6980235B029A4205D23B699AB253
:105430007B681B68DA6003E01E23FB1801221A70E8
:105440007B6800229A667B680022DA661E23FB18BE
:105450001B781800BD4608B080BDC046F369FFEF59
:10546000FFCFFFFFFFF4FFFF0038014000100240B4
:105470000044004000480040004C004000127A0008
:1054800080B582B000AF78607B685B6A0122134010
:105490000BD07B681B685B684A4A134019007B6825
:1054A0009A6A7B681B680A435A607B685B6A0222BF
:1054B00013400BD07B681B685B68434A134019009C
:1054C0007B68DA6A7B681B680A435A607B685B6AA0
:1054D000042213400BD07B681B685B683B4A134077
:1054E00019007B681A6B7B681B680A435A607B68EB
:1054F0005B6A082213400BD07B681B685B68344AE8
:10550000134019007B685A6B7B681B680A435A601A
:105510007B685B6A102213400BD07B681B689B681A
:105520002C4A134019007B689A6B7B681B680A43FE
:105530009A607B685B6A202213400BD07B681B68F3
:105540009B68254A134019007B68DA6B7B681B68EF
:105550000A439A607B685B6A402213401DD07B68D7
:105560001B685B681D4A134019007B681A6C7B68D6
:105570001B680A435A607B681A6C80235B039A425B
:105580000BD17B681B685B68154A134019007B6868
:105590005A6C7B681B680A435A607B685B6A80228E
:1055A00013400BD07B681B685B680E4A13401900E0
:1055B0007B689A6C7B681B680A435A60C046BD468C
:1055C00002B080BDFFFFFDFFFFFFFEFFFFFFFBFFFF
:1055D000FF7FFFFFFFEFFFFFFFDFFFFFFFFFEFFF9B
:1055E000FFFF9FFFFFFFF7FF80B592B002AF78602B
:1055F0007B6884220021995000F092F90300FB633C
:105600007B681B681B6808221340082B2CD1FB6B9E
:10561000802291037868464A0092002200F08CF8BC
:10562000031E21D0EFF310837B627B6ABB630123EF
:10563000BB62BB6A83F31088C0467B681B681A682C
:105640007B681B6880218A431A60BB6BFB62FB6A24
:1056500083F31088C0467B682022DA677B68782253
:105660000021995403235FE07B681B681B680422B8
:105670001340042B46D1FB6B8022D10378682C4A5F
:105680000092002200F058F8031E3BD0EFF3108385
:10569000FB60FB687B6301233B613B6983F31088FC
:1056A000C0467B681B681A687B681B6821490A40F2
:1056B0001A607B6B7B617B6983F31088C046EFF3D4
:1056C0001083BB61BB693B630123FB61FB6983F30F
:1056D0001088C0467B681B689A687B681B6801213C
:1056E0008A439A603B6B3B623B6A83F31088C046F7
:1056F0007B688022202199507B6878220021995470
:10570000032311E07B682022DA677B688022202156
:1057100099507B6800221A667B6800225A667B6873
:1057200078220021995400231800BD4610B080BD96
:10573000FFFFFF01DFFEFFFF80B584B000AFF86020
:10574000B9603B60FB1D1A704BE0BB69013348D068
:1057500000F0E6F802003B68D31ABA699A4202D315
:10576000BB69002B01D103234BE0FB681B681B685E
:105770000422134035D0FB681B68DB690822134004
:10578000082B11D1FB681B6808221A62FB681800FD
:1057900000F03CF8FB68842208219950FB687822CD
:1057A0000021995401232CE0FB681B68DA698023EF
:1057B0001B011A4080231B019A4212D1FB681B680F
:1057C000802212011A62FB68180000F01FF8FB68C3
:1057D000842220219950FB687822002199540323C8
:1057E0000FE0FB681B68DB69BA681340BA68D31A1C
:1057F0005A425341DBB21A00FB1D1B789A42A4D0D7
:1058000000231800BD4604B080BD000080B58EB0F6
:1058100000AF7860EFF310837B617B697B630123CA
:10582000BB61BB6983F31088C0467B681B681A683C
:105830007B681B6826490A401A607B6BFB61FB6929
:1058400083F31088C046EFF310833B623B6A3B63EF
:1058500001237B627B6A83F31088C0467B681B68E8
:105860009A687B681B6801218A439A603B6BBB6224
:10587000BB6A83F31088C0467B681B6E012B18D16E
:10588000EFF31083BB60BB68FB620123FB60FB6826
:1058900083F31088C0467B681B681A687B681B68A6
:1058A00010218A431A60FB6A3B613B6983F31088CD
:1058B000C0467B688022202199507B6800221A66AE
:1058C0007B6800229A66C046BD460EB080BDC046C9
:1058D000DFFEFFFF80B500AF074B1A68064B1021B3
:1058E0000A431A600320FBF73FF9FAF7F7FF00239A
:1058F0001800BD4680BDC0460020024080B500AF04
:10590000054B1B781A00054B1B68D218034B1A6015
:10591000C046BD4680BDC0460C000020F41C0020DF
:1059200080B500AF024B1B681800BD4680BDC04665
:10593000F41C0020014B18687047C046100000207E
:1059400070B500260C4D0D4C641BA410A64209D165
:10595000002600F05FFD0A4D0A4C641BA410A6420D
:1059600005D170BDB300EB5898470136EEE7B300A0
:10597000EB5898470136F2E7586600085866000869
:10598000586600085C66000870477047002310B531
:105990009A4200D110BDCC5CC4540133F8E7030037
:1059A0008218934200D1704719700133F9E7000063
:1059B00070B50F4E0D0031680400002902D100F0CF
:1059C00003F930602900200000F0FEF8431C0AD0E3
:1059D0000323C51C9D43A84207D0291A200000F0CC
:1059E000F3F8431C01D101256D42280070BDC0466B
:1059F000001D0020F7B50322CB1C9343083306009B
:105A00001F000C2B32D20C27B94231D8300000F0E5
:105A10006DF9324D2B681C00002C2ED1390030005E
:105A2000FFF7C6FF0400431C1ED12C682500002D83
:105A30004AD123682900E3183000019300F0C4F82C
:105A4000019B834243D123680337FF1A03239F43FB
:105A500008370C2F00D20C2739003000FFF7A8FFC1
:105A6000431C34D02368DF19276013E0002BCBDA06
:105A70000C23002533602800FEBD2268D11B20D4F2
:105A80000B2917D9E2192760A34211D12A60636854
:105A9000116053603000250000F030F907220B350B
:105AA000231D9543EA1A9D42E5D05B1BA350E2E714
:105AB0005A60ECE76268A34201D12A60EAE75A60C3
:105AC000E8E723006468A7E72C006D68AFE70C23C4
:105AD0003000336000F012F9CDE7C046FC1C002016
